:100000000C94DF020C9407030C9407030C94070371
:100010000C9407030C9407030C9407030C94070338
:100020000C9407030C9407030C9407030C94070328
:100030000C9407030C9407030C9407030C94070318
:100040000C9428040C9407030C9434070C94660752
:100050000C9407030C9407030C9407030C940703F8
:100060000C948A0D0C9407030000000800020100A4
:100070000003040700000000000000000102040863
:100080001020408001020408102001020408102002
:10009000040404040404040402020202020203032E
:1000A0000303030300000000250028002B000000CC
:1000B0000000240027002A0000000000003E5B4FE3
:1000C0005B3E3E6B4F6B3E1C3E7C3E1C183C7E3CB8
:1000D000181C577D571C1C5E7F5E1C00183C1800C6
:1000E000FFE7C3E7FF0018241800FFE7DBE7FF3056
:1000F000483A060E2629792926407F050507407FC4
:1001000005253F5A3CE73C5A7F3E1C1C08081C1C36
:100110003E7F14227F22145F5F005F5F06097F012C
:100120007F006689956A606060606094A2FFA29417
:1001300008047E040810207E201008082A1C0808E5
:100140001C2A08081E101010100C1E0C1E0C303833
:100150003E3830060E3E0E06000000000000005F34
:1001600000000007000700147F147F14242A7F2A50
:100170001223130864623649562050000807030012
:10018000001C2241000041221C002A1C7F1C2A085E
:10019000083E0808008070300008080808080000C1
:1001A00060600020100804023E5149453E00427F35
:1001B000400072494949462141494D331814127F84
:1001C0001027454545393C4A494931412111090724
:1001D0003649494936464949291E000014000000A5
:1001E0004034000000081422411414141414004177
:1001F00022140802015909063E415D594E7C121134
:10020000127C7F494949363E414141227F4141416B
:100210003E7F494949417F090909013E41415173E6
:100220007F0808087F00417F41002040413F017F57
:10023000081422417F404040407F021C027F7F041F
:1002400008107F3E4141413E7F090909063E415168
:10025000215E7F09192946264949493203017F0158
:10026000033F4040403F1F2040201F3F4038403F59
:10027000631408146303047804036159494D43006F
:100280007F4141410204081020004141417F0402A6
:10029000010204404040404000030708002054543D
:1002A00078407F284444383844444428384444281B
:1002B0007F385454541800087E090218A4A49C786E
:1002C0007F0804047800447D40002040403D007FCA
:1002D0001028440000417F40007C047804787C08AA
:1002E0000404783844444438FC182424181824247E
:1002F00018FC7C08040408485454542404043F4463
:10030000243C4040207C1C2040201C3C4030403C91
:1003100044281028444C9090907C4464544C4400F1
:100320000836410000007700000041360800020155
:100330000204023C2623263C1EA1A161123A404041
:10034000207A3854545559215555794122545478BE
:1003500042215554784020545579400C1E52721257
:1003600039555555593954545459395554545800E0
:1003700000457C410002457D420001457C407D12E4
:1003800011127DF0282528F07C5455450020545446
:100390007C547C0A097F4932494949323A444444F1
:1003A0003A324A4848303A4141217A3A424020782C
:1003B000009DA0A07D3D4242423D3D4040403D3C2D
:1003C00024FF2424487E4943662B2FFC2F2BFF0952
:1003D00029F620C0887E0903205454794100004446
:1003E0007D413048484A32384040227A007A0A0A31
:1003F000727D0D19317D2629292F282629292926A4
:1004000030484D4020380808080808080808382FE8
:1004100010C8ACBA2F102834FA00007B0000081472
:100420002A142222142A14085500550055AA55AA48
:1004300055AAFF55FF55FF000000FF00101010FFE8
:1004400000141414FF001010FF00FF1010F010F043
:10045000141414FC001414F700FF0000FF00FF1434
:1004600014F404FC141417101F10101F101F141480
:10047000141F00101010F0000000001F10101010CA
:100480001F10101010F010000000FF1010101010BE
:1004900010101010FF10000000FF140000FF00FFFC
:1004A00000001F10170000FC04F414141710171498
:1004B00014F404F40000FF00F714141414141414BA
:1004C000F700F7141414171410101F101F1414142D
:1004D000F4141010F010F000001F101F0000001F97
:1004E00014000000FC140000F010F01010FF10FFCA
:1004F000141414FF141010101F00000000F010FF5F
:10050000FFFFFFFFF0F0F0F0F0FFFFFF0000000042
:1005100000FFFF0F0F0F0F0F3844443844FC4A4AC6
:100520004A347E02020606027E027E02635549417B
:10053000633844443C04407E201E2006027E0202B2
:1005400099A5E7A5991C2A492A1C4C7201724C30C6
:100550004A4D4D303048784830BC625A463D3E499D
:100560004949007E0101017E2A2A2A2A2A44445F41
:10057000444440514A444040444A51400000FF0135
:1005800003E080FF000008086B6B08361236243643
:10059000060F090F060000181800000010100030A8
:1005A00040FF0101001F01011E00191D1712003C30
:1005B0003C3C3C000000000020049607EC0C112499
:1005C0001FBECFEFD8E0DEBFCDBF11E0A0E0B1E0AD
:1005D000E2EDFDE102C005900D92AA39B107D9F70D
:1005E00023E0AAE9B1E001C01D92A235B207E1F70C
:1005F00015E0CEEBD5E004C02297FE010E94E30E89
:10060000C83BD107C9F70E9437080C94BC0E0C9464
:100610000000CF93DF93EC0181E1FB017896DE01CE
:10062000589601900D928A95E1F7FB0182819381A2
:100630009B838A83848195819D838C838681978126
:100640009F838E838085918599878887828593850E
:100650009B878A87848595859D878C8786859785E6
:100660009F878E8780899189998B888B82899389CE
:100670009B8B8A8B84898C8B85898D8B86898E8BCD
:1006800087898F8B85E791E099838883DF91CF916C
:100690000895FF920F931F93CF93DF93EC01F62EF3
:1006A0008C01085E1F4FC8010E94E60B40E050E03D
:1006B00060E070E0CE010E94220B6F2DCE010E94FF
:1006C0001708C801DF91CF911F910F91FF900C94F3
:1006D000FE0BFF920F931F93CF93DF93CDB7DEB73F
:1006E000A9970FB6F894DEBF0FBECDBF8C01FC01F9
:1006F000F18063EC71E0CE0101960E9409036F2D39
:10070000CE0101960E944903F80110816AE971E067
:10071000CE0101960E940903612FCE0101960E942D
:100720004903A9960FB6F894DEBF0FBECDBFDF9187
:10073000CF911F910F91FF90089560E78BED91E0AD
:100740000E94C50B61E782EB91E00C94C50B61E060
:1007500087E00E94800561E086E00E94800561E0FC
:1007600085E00C9480050F931F93CF93DF93EB01EB
:100770008A01BC0187E00E94F804BE0186E00E9465
:10078000F804B80185E0DF91CF911F910F910C948F
:10079000F804009719F44FEF50E00EC08130910536
:1007A00039F440E050E060E070E08FEF90E008C086
:1007B000029741F440E050E060E070E080E090E0BB
:1007C0000C94B303089526E040E855E260E070E041
:1007D00085EF91E00E94D2066FE171E085EF91E034
:1007E0000E9422080E94A7030E949D0383E391E0D8
:1007F0000C94690386E391E00E94690380E090E035
:100800000E94C90360ED77E080E090E00E949504CB
:1008100081E090E00E94C90360ED77E080E090E025
:100820000E94950440E050E060E070E080E090E0DD
:100830000E94B30360ED77E080E090E00C949504B3
:1008400083EC91E00E94EE0B8AE991E00C94EE0BB0
:100850001F920F920FB60F9211242F933F938F93F5
:100860009F93AF93BF938091ED019091EE01A09182
:10087000EF01B091F0013091EC0123E0230F2D370F
:1008800020F40196A11DB11D05C026E8230F029694
:10089000A11DB11D2093EC018093ED019093EE0119
:1008A000A093EF01B093F0018091F1019091F201DA
:1008B000A091F301B091F4010196A11DB11D8093A7
:1008C000F1019093F201A093F301B093F401BF9171
:1008D000AF919F918F913F912F910F900FBE0F90ED
:1008E0001F9018953FB7F8948091F1019091F20113
:1008F000A091F301B091F40126B5A89B05C02F3F4C
:1009000019F00196A11DB11D3FBF6627782F892FD1
:100910009A2F620F711D811D911D42E0660F771F96
:10092000881F991F4A95D1F70895CF92DF92EF92D1
:10093000FF92CF93DF936B017C010E947204EB0165
:10094000C114D104E104F10489F00E942A0C0E9430
:1009500072046C1B7D0B683E734090F381E0C81AF3
:10096000D108E108F108C851DC4FEACFDF91CF91FF
:10097000FF90EF90DF90CF900895789484B58260D7
:1009800084BD84B5816084BD85B5826085BD85B533
:10099000816085BDEEE6F0E0808181608083E1E8E2
:1009A000F0E010828081826080838081816080831A
:1009B000E0E8F0E0808181608083E1EBF0E080811D
:1009C00084608083E0EBF0E0808181608083EAE7EF
:1009D000F0E0808184608083808182608083808178
:1009E000816080838081806880831092C100089537
:1009F0001F93CF93DF93182FEB0161E00E948005D6
:100A0000209711F460E004C0CF3FD10539F461E0D4
:100A1000812FDF91CF911F910C94B905E12FF0E068
:100A2000E859FF4FE491E330F9F048F4E130B9F0D0
:100A3000E230A1F584B5806284BDC8BD34C0E73022
:100A4000E9F0E83019F1E43049F5809180008062E6
:100A500080938000D0938B00C0938A0024C084B51B
:100A6000806884BDC7BD1FC080918000806880936E
:100A70008000D0938900C093880015C08091B00099
:100A800080688093B000C093B3000DC08091B00027
:100A900080628093B000C093B40005C0C038D10517
:100AA0000CF0B5CFAFCFDF91CF911F910895833078
:100AB00081F028F4813099F08230A1F008958730D8
:100AC000A9F08830B9F08430D1F4809180008F7D16
:100AD00003C0809180008F7780938000089584B553
:100AE0008F7702C084B58F7D84BD08958091B0005A
:100AF0008F7703C08091B0008F7D8093B000089500
:100B0000CF93DF9390E0FC01E458FF4F2491FC0168
:100B1000E057FF4F8491882349F190E0880F991F97
:100B2000FC01E255FF4FA591B4918C559F4FFC01FC
:100B3000C591D4919FB7611108C0F8948C9120950C
:100B400082238C93888182230AC0623051F4F89406
:100B50008C91322F309583238C938881822B8883CC
:100B600004C0F8948C91822B8C939FBFDF91CF911E
:100B700008950F931F93CF93DF931F92CDB7DEB7E6
:100B8000282F30E0F901E859FF4F8491F901E4582A
:100B9000FF4F1491F901E057FF4F04910023C9F072
:100BA000882321F069830E9457056981E02FF0E0D6
:100BB000EE0FFF1FEC55FF4FA591B4919FB7F8942E
:100BC0008C91611103C01095812301C0812B8C93FE
:100BD0009FBF0F90DF91CF911F910F910895FC015E
:100BE000818D228D90E0805C9F4F821B91098F73D5
:100BF00099270895FC01918D828D981731F0828D8F
:100C0000E80FF11D858D90E008958FEF9FEF089517
:100C1000FC01918D828D981761F0828DDF01A80F04
:100C2000B11D5D968C91928D9F5F9F73928F90E026
:100C300008958FEF9FEF08958CE897E0892B49F096
:100C400080E090E0892B29F00E948C0781110C94A0
:100C500000000895FC01848DDF01A80FB11DA35A87
:100C6000BF4F2C91848D90E001968F739927848FCC
:100C7000A689B7892C93A089B1898C9180648C93C3
:100C8000938D848D981306C00288F389E02D8081AE
:100C90008F7D80830895CF93DF93EC01888D882327
:100CA000C9F0EA89FB89808185FD05C0A889B989D9
:100CB0008C9186FD0FC00FB607FCF5CF808185FFB4
:100CC000F2CFA889B9898C9185FFEDCFCE010E9422
:100CD0002A06E7CFDF91CF910895CF92DF92FF925E
:100CE0000F931F93CF93DF931F92CDB7DEB76C01A5
:100CF00081E0D60158968C9358975B969C915B97B0
:100D00005C968C915C97981307C05096ED91FC917E
:100D10005197808185FD2EC0F601038D10E00F5F95
:100D20001F4F0F731127F02EF601848DF81211C09A
:100D30000FB607FCF9CFD6015096ED91FC91519773
:100D4000808185FFF1CFC60169830E942A066981EF
:100D5000EBCF838DE80FF11DE35AFF4F6083D6017F
:100D60005B960C935B975296ED91FC915397808123
:100D700080620CC0D6015696ED91FC915797608326
:100D80005096ED91FC91519780818064808381E041
:100D900090E00F90DF91CF911F910F91FF90DF9026
:100DA000CF900895BF92CF92DF92EF92FF92CF93B0
:100DB000DF93EC016A017B01B22EE889F98982E0B8
:100DC0008083411581EE580761057105A1F060E04F
:100DD00079E08DE390E0A70196010E94BF0E2150BB
:100DE00031094109510956954795379527952115A0
:100DF00080E1380798F0E889F989108260E874E8A2
:100E00008EE190E0A70196010E94BF0E21503109AA
:100E1000410951095695479537952795EC85FD85EC
:100E20003083EE85FF852083188EEC89FD89B082A2
:100E3000EA89FB89808180618083EA89FB898081DE
:100E400088608083EA89FB89808180688083EA8961
:100E5000FB8980818F7D8083DF91CF91FF90EF9020
:100E6000DF90CF90BF9008951F920F920FB60F9210
:100E700011242F938F939F93EF93FF93E09105029B
:100E8000F09106028081E0910B02F0910C0282FD4C
:100E900012C0908180910E028F5F8F7320910F029C
:100EA000821751F0E0910E02F0E0EB50FE4F958F6B
:100EB00080930E0201C08081FF91EF919F918F91ED
:100EC0002F910F900FBE0F901F9018951F920F92A9
:100ED0000FB60F9211242F933F934F935F936F930D
:100EE0007F938F939F93AF93BF93EF93FF9385EF80
:100EF00091E00E942A06FF91EF91BF91AF919F91DF
:100F00008F917F916F915F914F913F912F910F90B2
:100F10000FBE0F901F90189585EF91E00E94EF058E
:100F200021E0892B09F420E0822F08951092F80126
:100F30001092F70188EE93E0A0E0B0E08093F90111
:100F40009093FA01A093FB01B093FC018CE391E034
:100F50009093F6018093F50185EC90E09093020266
:100F60008093010284EC90E090930402809303024A
:100F700080EC90E0909306028093050281EC90E073
:100F8000909308028093070282EC90E090930A020B
:100F90008093090286EC90E090930C0280930B0200
:100FA00010920E0210920F02109210021092110273
:100FB0000895CF92DF92EF92FF920F931F93CF93FA
:100FC000DF936C017A01EB01E60EF71E00E010E002
:100FD000CE15DF0561F06991D601ED91FC9101908C
:100FE000F081E02DC6010995080F191FF1CFC80146
:100FF000DF91CF911F910F91FF90EF90DF90CF90F5
:1010000008956115710581F0DB010D900020E9F76D
:10101000AD0141505109461B570BDC01ED91FC918C
:101020000280F381E02D099480E090E00895DC01D6
:10103000ED91FC910190F081E02D099468E471E05C
:101040000C9401080F931F93CF93DF93EC010E9440
:1010500001088C01CE010E941E08800F911FDF91B4
:10106000CF911F910F9108950E94B70E08950E948D
:10107000BD040E9436080E94E303CCE1D6E00E9442
:10108000FA032097E1F30E941C06F9CF2F923F92BA
:101090004F925F926F927F928F929F92AF92BF9288
:1010A000CF92DF92EF92FF920F931F93CF93DF9334
:1010B00000D000D0CDB7DEB74C017C836B836A01D2
:1010C0005901C8018701AC014C195D0957FF03C0E4
:1010D00051954195510995016B817C81261B370BF8
:1010E00037FF03C031952195310922242394312CF7
:1010F0002417350714F0212C312C2114310459F018
:101100003A2D2B2D5C01832F922F3B812C81DC8289
:10111000CB82C32ED22EAB81BC81AA16BB065CF457
:101120003C2D2D2D6C01832F922F3B812C81BC8275
:10113000AB82A32EB22E2501EB81FC814E1A5F0AF1
:101140003C016C187D0877FE03C0719461947108AE
:10115000720157FE03C0FFEFEF1AFF0AF594E79400
:10116000C816D9062CF421E030E03A83298324C044
:101170006FEF7FEF7A8369831FC0D401ED91FC91FB
:101180000480F581E02D980121143104D9F04B81C0
:101190005C81B601C4010995E618F708F7FE06C0A0
:1011A000E981FA81CE0EDF1EE40CF51C2B813C8117
:1011B0002F5F3F4F3C832B836B817C81A616B70644
:1011C000E4F604C0A6016B817C81E4CF0F900F9000
:1011D0000F900F90DF91CF911F910F91FF90EF90A3
:1011E000DF90CF90BF90AF909F908F907F906F9047
:1011F0005F904F903F902F9008956F927F928F92C3
:101200009F92AF92BF92CF92DF92EF92FF920F9395
:101210001F93CF93DF93EC015B016A013901480111
:10122000E881F9810284F385E02D87010995E88141
:10123000F981A601480D591D415051090284F385D9
:10124000E02D9301B501CE010995E881F981008473
:10125000F185E02D9401A601B501CE010995E88143
:10126000F981B501660D771D615071090084F18522
:10127000E02D9401A601CE010995DF91CF911F9138
:101280000F91FF90EF90DF90CF90BF90AF909F9025
:101290008F907F906F900895EF92FF920F931F931E
:1012A000DC01ED91FC91240F351F2150310906809E
:1012B000F781E02D780189019B0109951F910F911C
:1012C000FF90EF900895EF92FF920F931F93DC0130
:1012D000ED91FC91260F371F215031090680F781CF
:1012E000E02D78018A0109951F910F91FF90EF90F1
:1012F00008956F927F928F929F92AF92BF92CF92FA
:10130000DF92EF92FF920F931F93CF93DF935C01D5
:101310004A0169013801EB01C60ED71ECC15DD0567
:1013200074F4D501ED91FC910084F185E02D8701E5
:101330009301A401BE01C50109952196EFCFDF916C
:10134000CF911F910F91FF90EF90DF90CF90BF90C2
:10135000AF909F908F907F906F900895EF92FF9243
:101360000F931F93DC01ED91FC9111971A960D914B
:101370001C911B9718962D913C9119970684F7851F
:10138000E02D7B0140E050E060E070E009951F91A6
:101390000F91FF90EF9008950895FC01138212823F
:1013A0008DE591E0918380837583648357834683C1
:1013B0007187608753874287158A1586148617863A
:1013C000168621E0248B8FEF9FEF938B828B918B7E
:1013D000808B268B178A08952F923F924F925F92AF
:1013E0006F927F928F929F92AF92BF92CF92DF9235
:1013F000EF92FF920F931F93CF93DF93CDB7DEB79A
:101400002C970FB6F894DEBF0FBECDBF9C878B879D
:101410003A0118870F83FA86E986CD82DC01189697
:101420008D919C911997681779070CF09EC01A96B8
:101430008D919C911B97481759070CF096C08C2CE6
:10144000912CCB01B6E0CB9E800D911D1124181676
:1014500019060CF08AC0C401E3E0880F991FEA95D1
:10146000E1F7840F951F181619060CF07EC0AB85A6
:10147000BC8557968C91811103C0203B08F02F5FEB
:101480005B016B011C8258EB452E50E0552E461A2D
:10149000570AB5E02B9F400C511C1124EC81E5301C
:1014A00031F0F201EA0DFB1D24912B8301C01B8258
:1014B0007A82698213011E823B8130FF13C0AB85A3
:1014C000BC85ED91FC91BD81B13031F40480F58192
:1014D000E02D2F81388519C00684F785E02DEF8037
:1014E000F8841EC0E985FA852F813885E217F30755
:1014F000F9F0AB85BC85ED91FC91BD81B13059F41B
:101500000480F581E02D29853A85A101B5018B85FF
:101510009C8509950DC00684F785E02DE984FA8441
:101520008401940149815A81B6018B859C85099576
:10153000EB81E695EB83FE81FF5FFE8329813A8193
:10154000280D391D3A8329833FEF231A330AF830D7
:1015500009F0B2CF4C814F5F4C83C80CD91C8FEF80
:10156000A81AB80A463009F099CF2C960FB6F8940D
:10157000DEBF0FBECDBFDF91CF911F910F91FF90C6
:10158000EF90DF90CF90BF90AF909F908F907F9023
:101590006F905F904F903F902F900895CF92EF9271
:1015A000FF920F931F93CF93DF93EC01262F6A30A6
:1015B00049F42C898E859F8538E0239F800D911DED
:1015C000112432C06D30A1F1EA88FB88088919899D
:1015D0004E855F856C857D85CC880E94EC092C89C1
:1015E000422F50E08C859D8536E0239F800D911D14
:1015F00011249D878C872E892223D1F06AEF640302
:101600009001659F300D112468857985260F371F5D
:10161000281739076CF4F3E0440F551FFA95E1F7EA
:101620008E859F85840F951F9F878E871D861C86BC
:1016300081E090E0DF91CF911F910F91FF90EF90AB
:10164000CF900895FC017587648757874687089572
:10165000FC0185890895CF92DF92EF92FF920F935C
:101660001F93CF93DF937C01EB018A01690148301E
:10167000510508F043C06830710508F03FC00E9472
:10168000280B823059F08330A1F08130C1F487E01B
:1016900090E0801B910B8E01EC0111C087E090E07F
:1016A0009C012C1B3D0BE9019C01201B310B890186
:1016B00006C087E090E08C1B9D0BE8018C0127960B
:1016C000C770DD27F801EE0FFF1FEE0DFF1D21E0B3
:1016D00030E00C2E02C0220F331F0A94E2F7CD280F
:1016E00029F0808D918D822B932B06C0209530950B
:1016F000808D918D82239323918F808FDF91CF9165
:101700001F910F91FF90EF90DF90CF900895DC0133
:10171000ED91FC910190F081E02D0994DC01ED91B7
:10172000FC910190F081E02D0994CF93C62FFC012C
:10173000608982E992E00E94CC0C6C2FC03108F0E5
:101740006FE0606E70E082E992E00E948E0B82E9A9
:1017500092E0CF910C94E90CCF93C62FFC016089E5
:1017600082E992E00E94CC0CC43008F0C0E06C2FFB
:1017700070E0660F771F616882E992E00E948E0B2D
:1017800082E992E0CF910C94E90CCF93DF93EC01C6
:10179000688B82E992E00E94C20C688982E992E03B
:1017A0000E94CC0C61E270E082E992E00E948E0B14
:1017B00082E992E00E94E90C60E0CE010E94AC0B4D
:1017C0006FE0CE01DF91CF910C94950B28E0FC01E6
:1017D00011921192CF012150D1F70895CF93DF9349
:1017E000EC0148E050E068E070E00E94CD0985E738
:1017F00091E099838883DF91CF910895FF920F93B1
:101800001F93CF93DF93EC01688982E992E00E94F5
:10181000CC0C60E082E992E00E94830C98E0F92E03
:101820008E0169917991772782E992E00E94870B76
:10183000F801618170E082E992E00E94870BFA94DE
:1018400079F782E992E0DF91CF911F910F91FF909C
:101850000C94E90C08958091C20290E02091C3029B
:10186000821B910908952091C3028091C20228171A
:1018700050F4E22FF0E0EC53FD4F808190E02F5FB9
:101880002093C30208958FEF9FEF0895E091C30264
:101890008091C202E81730F4F0E0EC53FD4F8081F4
:1018A00090E008958FEF9FEF08950895CF92DF9213
:1018B000EF92FF920F931F93CF93DF937C01CB01A5
:1018C0008A0120919E02222389F0EB016B01C40E54
:1018D000D51ECC15DD0569F06991D701ED91FC911C
:1018E0000190F081E02DC7010995F3CF642F0E948C
:1018F000610DC801DF91CF911F910F91FF90EF9083
:10190000DF90CF900895CF93DF931F92CDB7DEB7CE
:10191000698320919E022223D1F020919F022032E0
:1019200040F021E030E0FC013383228380E090E04E
:1019300015C08091A002E82FF0E0EF55FD4F99818E
:1019400090838F5F8093A00280939F0205C061E027
:10195000CE0101960E94610D81E090E00F90DF9131
:10196000CF910895FC011382128248EE53E060E0AB
:1019700070E044835583668377838DE891E091839B
:10198000808308951092C3021092C2021092A002A6
:1019900010929F020C94F00C81E080939E02609361
:1019A000C1021092A00210929F0208950F93062F79
:1019B00021E040919F0261EA72E08091C1020E94A1
:1019C0000E0D1092A00210929F0210929E020F9193
:1019D000089561E00C94D60C82E992E00C94B20C6C
:1019E0001092510381E080934F0310924E0361E007
:1019F00082E10E94B90561E083E10E94B905E9EB4B
:101A0000F0E080818E7F808380818D7F808388E479
:101A10008093B80085E48093BC0008950F93413211
:101A200008F046C0909151039111FCCF92E0909341
:101A3000510300934F039FEF9093E4021092290308
:101A400040932803FB016AE273E0DB019A2F961BA7
:101A5000941718F491919D93F9CF1092500390919F
:101A60005003880F892B8093500380914E0381305F
:101A700041F410924E03809150038093BB0085EC9B
:101A800001C085EE8093BC00222321F08091510398
:101A90008230E1F38091E4028F3F61F08091E402B3
:101AA000803251F08091E402803341F483E007C03A
:101AB00081E005C080E003C082E001C084E00F91B6
:101AC0000895613298F420915103243089F4609391
:101AD0000603FC0188E093E0DC012A2F281B26176F
:101AE00018F421912D93F9CF80E0089581E00895B5
:101AF00082E0089585ED8093BC008091BC0084FD58
:101B0000FCCF10925103089585EC8093BC00109295
:101B1000510308951F920F920FB60F9211242F9325
:101B20003F934F935F936F937F938F939F93AF9365
:101B3000BF93EF93FF938091B900887F803609F4BB
:101B40009CC068F5883209F45BC090F4803109F4D8
:101B500054C038F4882309F4F5C0883009F44DC026
:101B6000F5C0883109F44CC0803209F45DC0EEC084
:101B7000803409F468C048F4803309F455C08833D0
:101B800009F0E4C08093E402A8C0803509F44FC096
:101B9000883509F45DC0883409F0D8C0D5C08839CB
:101BA00009F4C6C0A8F4883709F467C038F4883649
:101BB00009F463C0803709F460C0C8C0883809F4EC
:101BC000B7C0803909F45FC0803809F0BFC05BC07E
:101BD000803B09F485C038F4803A09F466C0883A3D
:101BE00009F47EC0B3C0803C09F4A6C0883C09F467
:101BF000A3C0883B09F489C0A9C08091500310C0DC
:101C00009091290380912803981770F5E09129039A
:101C100081E08E0F80932903F0E0E65DFC4F808128
:101C20008093BB0085EC85C08093E4028DC0E09179
:101C3000290381E08E0F809329038091BB00F0E09F
:101C4000E65DFC4F808390912903809128036DC04D
:101C5000E091290381E08E0F809329038091BB00DE
:101C6000F0E0E65DFC4F808380914F0381116CC0F2
:101C700081E080934E0384EA60C083E08093510347
:101C80001092E502CFCF8091E502803208F050C07B
:101C9000E091E50281E08E0F8093E5028091BB0028
:101CA000F0E0EA51FD4F8083BDCF8091E5028032A4
:101CB00030F4E091E502F0E0EA51FD4F10820E941D
:101CC0007A0D6091E50270E0E0914A03F0914B03D8
:101CD00086EE92E009951092E5020E94840D36C0CE
:101CE00084E0809351031092070310920603E09161
:101CF0004C03F0914D03099580910603811105C0B5
:101D000081E08093060310920803E091070381E0CD
:101D10008E0F80930703F0E0E85FFC4F8081809393
:101D2000BB009091070380910603981708F47ACFBF
:101D300085E88093BC000AC085EC8093BC001092BB
:101D4000510304C01092E4020E947A0DFF91EF91BA
:101D5000BF91AF919F918F917F916F915F914F91C3
:101D60003F912F910F900FBE0F901F90189581E01B
:101D700090E0F8940C94E70EF8940C94E70EA1E22E
:101D80001A2EAA1BBB1BFD010DC0AA1FBB1FEE1FF5
:101D9000FF1FA217B307E407F50720F0A21BB30B40
:101DA000E40BF50B661F771F881F991F1A9469F7BC
:101DB00060957095809590959B01AC01BD01CF0118
:101DC0000895EE0FFF1F0590F491E02D0994F8940B
:021DD000FFCF43
:101DD200566F6C74733A200043656C736975733A7D
:101DE200200066616872656E686569743A20003821
:101DF2007838204C4544204D6174726978205465CE
:101E02007374003339003700000000006D06D907F3
:101E1200EF050806FA054B060D0A006E616E0069B1
:101E22006E66006F7666002E0000000000CE0AD9B2
:101E320007340846084C096309FD087909AE09CC44
:101E42000900000000CE0AD9072B0B46084C096393
:101E520009FD087909AE09CC0900000000830C567F
:0A1E62000C2B0C330C460C550C0041
:00000001FF
